{
  "_format": "hh-sol-artifact-1",
  "contractName": "PriceRecorder",
  "sourceName": "contracts/PriceRecorder.sol",
  "abi": [
    {
      "inputs": [
        {
          "internalType": "uint256",
          "name": "_initialInterval",
          "type": "uint256"
        }
      ],
      "stateMutability": "nonpayable",
      "type": "constructor"
    },
    {
      "anonymous": false,
      "inputs": [
        {
          "indexed": true,
          "internalType": "address",
          "name": "pool",
          "type": "address"
        },
        {
          "indexed": false,
          "internalType": "string",
          "name": "reason",
          "type": "string"
        }
      ],
      "name": "EmergencyPriceRecorded",
      "type": "event"
    },
    {
      "anonymous": false,
      "inputs": [
        {
          "indexed": true,
          "internalType": "address",
          "name": "previousOwner",
          "type": "address"
        },
        {
          "indexed": true,
          "internalType": "address",
          "name": "newOwner",
          "type": "address"
        }
      ],
      "name": "OwnershipTransferred",
      "type": "event"
    },
    {
      "anonymous": false,
      "inputs": [
        {
          "indexed": true,
          "internalType": "address",
          "name": "pool",
          "type": "address"
        }
      ],
      "name": "PoolDisabled",
      "type": "event"
    },
    {
      "anonymous": false,
      "inputs": [
        {
          "indexed": true,
          "internalType": "address",
          "name": "pool",
          "type": "address"
        },
        {
          "indexed": false,
          "internalType": "address",
          "name": "token0",
          "type": "address"
        },
        {
          "indexed": false,
          "internalType": "address",
          "name": "token1",
          "type": "address"
        },
        {
          "indexed": false,
          "internalType": "uint24",
          "name": "fee",
          "type": "uint24"
        }
      ],
      "name": "PoolEnabled",
      "type": "event"
    },
    {
      "anonymous": false,
      "inputs": [
        {
          "indexed": true,
          "internalType": "address",
          "name": "pool",
          "type": "address"
        },
        {
          "indexed": false,
          "internalType": "uint160",
          "name": "sqrtPriceX96",
          "type": "uint160"
        },
        {
          "indexed": false,
          "internalType": "int24",
          "name": "tick",
          "type": "int24"
        },
        {
          "indexed": false,
          "internalType": "uint128",
          "name": "liquidity",
          "type": "uint128"
        },
        {
          "indexed": false,
          "internalType": "address",
          "name": "token0",
          "type": "address"
        },
        {
          "indexed": false,
          "internalType": "address",
          "name": "token1",
          "type": "address"
        },
        {
          "indexed": false,
          "internalType": "uint256",
          "name": "timestamp",
          "type": "uint256"
        },
        {
          "indexed": false,
          "internalType": "uint256",
          "name": "blockNumber",
          "type": "uint256"
        }
      ],
      "name": "PriceRecorded",
      "type": "event"
    },
    {
      "anonymous": false,
      "inputs": [
        {
          "indexed": false,
          "internalType": "bool",
          "name": "isRecording",
          "type": "bool"
        }
      ],
      "name": "RecordingStatusChanged",
      "type": "event"
    },
    {
      "anonymous": false,
      "inputs": [
        {
          "indexed": false,
          "internalType": "uint256",
          "name": "oldInterval",
          "type": "uint256"
        },
        {
          "indexed": false,
          "internalType": "uint256",
          "name": "newInterval",
          "type": "uint256"
        }
      ],
      "name": "UpdateIntervalChanged",
      "type": "event"
    },
    {
      "inputs": [
        {
          "internalType": "address",
          "name": "pool",
          "type": "address"
        }
      ],
      "name": "canUpdate",
      "outputs": [
        {
          "internalType": "bool",
          "name": "",
          "type": "bool"
        }
      ],
      "stateMutability": "view",
      "type": "function"
    },
    {
      "inputs": [
        {
          "internalType": "address",
          "name": "pool",
          "type": "address"
        }
      ],
      "name": "disablePool",
      "outputs": [],
      "stateMutability": "nonpayable",
      "type": "function"
    },
    {
      "inputs": [
        {
          "internalType": "address",
          "name": "pool",
          "type": "address"
        },
        {
          "internalType": "string",
          "name": "reason",
          "type": "string"
        }
      ],
      "name": "emergencyRecordPrice",
      "outputs": [],
      "stateMutability": "nonpayable",
      "type": "function"
    },
    {
      "inputs": [
        {
          "internalType": "address",
          "name": "pool",
          "type": "address"
        }
      ],
      "name": "enablePool",
      "outputs": [],
      "stateMutability": "nonpayable",
      "type": "function"
    },
    {
      "inputs": [
        {
          "internalType": "address",
          "name": "",
          "type": "address"
        }
      ],
      "name": "enabledPools",
      "outputs": [
        {
          "internalType": "bool",
          "name": "",
          "type": "bool"
        }
      ],
      "stateMutability": "view",
      "type": "function"
    },
    {
      "inputs": [],
      "name": "getEnabledPools",
      "outputs": [
        {
          "internalType": "address[]",
          "name": "",
          "type": "address[]"
        }
      ],
      "stateMutability": "view",
      "type": "function"
    },
    {
      "inputs": [],
      "name": "getPoolCount",
      "outputs": [
        {
          "internalType": "uint256",
          "name": "",
          "type": "uint256"
        }
      ],
      "stateMutability": "view",
      "type": "function"
    },
    {
      "inputs": [
        {
          "internalType": "address",
          "name": "pool",
          "type": "address"
        }
      ],
      "name": "getPoolInfo",
      "outputs": [
        {
          "components": [
            {
              "internalType": "address",
              "name": "token0",
              "type": "address"
            },
            {
              "internalType": "address",
              "name": "token1",
              "type": "address"
            },
            {
              "internalType": "uint24",
              "name": "fee",
              "type": "uint24"
            },
            {
              "internalType": "uint256",
              "name": "lastUpdate",
              "type": "uint256"
            },
            {
              "internalType": "uint256",
              "name": "updateCount",
              "type": "uint256"
            }
          ],
          "internalType": "struct PriceRecorder.PoolInfo",
          "name": "",
          "type": "tuple"
        }
      ],
      "stateMutability": "view",
      "type": "function"
    },
    {
      "inputs": [],
      "name": "isRecording",
      "outputs": [
        {
          "internalType": "bool",
          "name": "",
          "type": "bool"
        }
      ],
      "stateMutability": "view",
      "type": "function"
    },
    {
      "inputs": [],
      "name": "owner",
      "outputs": [
        {
          "internalType": "address",
          "name": "",
          "type": "address"
        }
      ],
      "stateMutability": "view",
      "type": "function"
    },
    {
      "inputs": [
        {
          "internalType": "address",
          "name": "",
          "type": "address"
        }
      ],
      "name": "poolInfo",
      "outputs": [
        {
          "internalType": "address",
          "name": "token0",
          "type": "address"
        },
        {
          "internalType": "address",
          "name": "token1",
          "type": "address"
        },
        {
          "internalType": "uint24",
          "name": "fee",
          "type": "uint24"
        },
        {
          "internalType": "uint256",
          "name": "lastUpdate",
          "type": "uint256"
        },
        {
          "internalType": "uint256",
          "name": "updateCount",
          "type": "uint256"
        }
      ],
      "stateMutability": "view",
      "type": "function"
    },
    {
      "inputs": [
        {
          "internalType": "uint256",
          "name": "",
          "type": "uint256"
        }
      ],
      "name": "poolList",
      "outputs": [
        {
          "internalType": "address",
          "name": "",
          "type": "address"
        }
      ],
      "stateMutability": "view",
      "type": "function"
    },
    {
      "inputs": [
        {
          "internalType": "address",
          "name": "pool",
          "type": "address"
        }
      ],
      "name": "recordPrice",
      "outputs": [],
      "stateMutability": "nonpayable",
      "type": "function"
    },
    {
      "inputs": [
        {
          "internalType": "address[]",
          "name": "pools",
          "type": "address[]"
        }
      ],
      "name": "recordPriceBatch",
      "outputs": [],
      "stateMutability": "nonpayable",
      "type": "function"
    },
    {
      "inputs": [
        {
          "internalType": "bool",
          "name": "_isRecording",
          "type": "bool"
        }
      ],
      "name": "setRecording",
      "outputs": [],
      "stateMutability": "nonpayable",
      "type": "function"
    },
    {
      "inputs": [
        {
          "internalType": "uint256",
          "name": "_newInterval",
          "type": "uint256"
        }
      ],
      "name": "setUpdateInterval",
      "outputs": [],
      "stateMutability": "nonpayable",
      "type": "function"
    },
    {
      "inputs": [
        {
          "internalType": "address",
          "name": "pool",
          "type": "address"
        }
      ],
      "name": "timeUntilNextUpdate",
      "outputs": [
        {
          "internalType": "uint256",
          "name": "",
          "type": "uint256"
        }
      ],
      "stateMutability": "view",
      "type": "function"
    },
    {
      "inputs": [
        {
          "internalType": "address",
          "name": "newOwner",
          "type": "address"
        }
      ],
      "name": "transferOwnership",
      "outputs": [],
      "stateMutability": "nonpayable",
      "type": "function"
    },
    {
      "inputs": [],
      "name": "updateInterval",
      "outputs": [
        {
          "internalType": "uint256",
          "name": "",
          "type": "uint256"
        }
      ],
      "stateMutability": "view",
      "type": "function"
    }
  ],
  "bytecode": "0x608060405234801561001057600080fd5b506040516119f03803806119f083398101604081905261002f9161010f565b600081116100765760405162461bcd60e51b815260206004820152601060248201526f125b9d985b1a59081a5b9d195c9d985b60821b604482015260640160405180910390fd5b60008054600160a01b6001600160a81b03199091163360ff60a01b19161717905560018181556040519081527fde5c952c6b1d2d5a3d8f912363a2128960eed0e684d59657252227590f9d37bd9060200160405180910390a16040805160008152602081018390527f906b7c716abe77ce683d8fb36d3428d70d84ae296249efe4691b95ebe3242a88910160405180910390a150610128565b60006020828403121561012157600080fd5b5051919050565b6118b9806101376000396000f3fe608060405234801561001057600080fd5b50600436106101215760003560e01c80638da5cb5b116100ad578063d3f0672211610071578063d3f0672214610344578063dcaaa61b14610358578063e73872b91461036b578063f2fde38b1461037e578063fd2c80ae1461039157600080fd5b80638da5cb5b146102725780638eec5d70146102855780639a7b5f111461028d578063ab14c05a1461031c578063b2a68ca81461032f57600080fd5b806337011521116100f457806337011521146102055780635211e29b14610226578063595aeb50146102395780637124c6831461024c5780637a80dfd11461025f57600080fd5b806306bfa938146101265780630cb729dc1461019257806316873229146101a75780632a48235b146101da575b600080fd5b6101396101343660046114b7565b61039a565b604051610189919081516001600160a01b0390811682526020808401519091169082015260408083015162ffffff1690820152606080830151908201526080918201519181019190915260a00190565b60405180910390f35b6101a56101a03660046114d4565b61048a565b005b6101ca6101b53660046114b7565b60026020526000908152604090205460ff1681565b6040519015158152602001610189565b6101ed6101e8366004611559565b61053d565b6040516001600160a01b039091168152602001610189565b6102186102133660046114b7565b610567565b604051908152602001610189565b6101a5610234366004611572565b6105dd565b6101a56102473660046114b7565b61071c565b6101a561025a366004611559565b610c67565b6101a561026d3660046114b7565b610d6d565b6000546101ed906001600160a01b031681565b600454610218565b6102df61029b3660046114b7565b600360208190526000918252604090912080546001820154600283015492909301546001600160a01b039182169391821692600160a01b90920462ffffff16919085565b604080516001600160a01b03968716815295909416602086015262ffffff909216928401929092526060830191909152608082015260a001610189565b6101a561032a3660046115f5565b610e7a565b610337610f56565b6040516101899190611612565b6000546101ca90600160a01b900460ff1681565b6101a56103663660046114b7565b6110e8565b6101ca6103793660046114b7565b611193565b6101a561038c3660046114b7565b611205565b61021860015481565b6040805160a0810182526000808252602082018190529181018290526060810182905260808101919091526001600160a01b03828116600090815260036020526040902054166104245760405162461bcd60e51b815260206004820152601060248201526f141bdbdb081b995d995c88185919195960821b60448201526064015b60405180910390fd5b506001600160a01b03908116600090815260036020818152604092839020835160a081018552815486168152600182015495861692810192909252600160a01b90940462ffffff1692810192909252600283015460608301529190910154608082015290565b6000546001600160a01b031633146104b45760405162461bcd60e51b815260040161041b9061165f565b6001600160a01b03831660009081526002602052604090205460ff166104ec5760405162461bcd60e51b815260040161041b90611682565b6104f5836112c7565b826001600160a01b03167fb8e2a0e9d13a3554d3ed11ae641603e5e475c8d14f7ca0aa0b58bff31e5720b183836040516105309291906116ac565b60405180910390a2505050565b6004818154811061054d57600080fd5b6000918252602090912001546001600160a01b0316905081565b6001600160a01b03811660009081526002602052604081205460ff166105905750600019919050565b6001546001600160a01b03831660009081526003602052604081206002015490916105ba916116f1565b90508042106105cc5750600092915050565b6105d6428261170a565b9392505050565b600054600160a01b900460ff1661062c5760405162461bcd60e51b8152602060048201526013602482015272149958dbdc991a5b99c81a5cc81c185d5cd959606a1b604482015260640161041b565b603281111561066f5760405162461bcd60e51b815260206004820152600f60248201526e426174636820746f6f206c6172676560881b604482015260640161041b565b60005b8181101561071757600083838381811061068e5761068e61171d565b90506020020160208101906106a391906114b7565b6001600160a01b03811660009081526002602052604090205490915060ff1680156106f657506001546001600160a01b0382166000908152600360205260409020600201546106f291906116f1565b4210155b1561070457610704816112c7565b508061070f81611733565b915050610672565b505050565b6000546001600160a01b031633146107465760405162461bcd60e51b815260040161041b9061165f565b6001600160a01b03811661078e5760405162461bcd60e51b815260206004820152600f60248201526e496e76616c6964206164647265737360881b604482015260640161041b565b6001600160a01b03811660009081526002602052604090205460ff16156107e95760405162461bcd60e51b815260206004820152600f60248201526e105b1c9958591e48195b98589b1959608a1b604482015260640161041b565b806001600160a01b0316633850c7bd6040518163ffffffff1660e01b815260040160e060405180830381865afa925050508015610843575060408051601f3d908101601f1916820190925261084091810190611763565b60015b61088f5760405162461bcd60e51b815260206004820152601760248201527f496e76616c696420556e697377617020563320706f6f6c000000000000000000604482015260640161041b565b6000886001600160a01b0316630dfe16816040518163ffffffff1660e01b8152600401602060405180830381865afa1580156108cf573d6000803e3d6000fd5b505050506040513d601f19601f820116820180604052508101906108f39190611802565b90506000896001600160a01b031663d21220a76040518163ffffffff1660e01b8152600401602060405180830381865afa158015610935573d6000803e3d6000fd5b505050506040513d601f19601f820116820180604052508101906109599190611802565b905060008a6001600160a01b031663ddca3f436040518163ffffffff1660e01b8152600401602060405180830381865afa15801561099b573d6000803e3d6000fd5b505050506040513d601f19601f820116820180604052508101906109bf919061181f565b9050816001600160a01b0316836001600160a01b031603610a225760405162461bcd60e51b815260206004820152601860248201527f546f6b656e73206d75737420626520646966666572656e740000000000000000604482015260640161041b565b8062ffffff1660641480610a3c57508062ffffff166101f4145b80610a4d57508062ffffff16610bb8145b80610a5e57508062ffffff16612710145b610a9d5760405162461bcd60e51b815260206004820152601060248201526f24b73b30b634b2103332b2903a34b2b960811b604482015260640161041b565b6000805b600454811015610afd578c6001600160a01b031660048281548110610ac857610ac861171d565b6000918252602090912001546001600160a01b031603610aeb5760019150610afd565b80610af581611733565b915050610aa1565b506001600160a01b03808d166000818152600260208181526040808420805460ff19166001908117909155815160a0810183528b881681528a881681850190815262ffffff808c1683860190815260608401898152608085018a81529a8a526003978890529590982092518354908b166001600160a01b0319909116178355905192820180549751909116600160a01b026001600160b81b0319909716929098169190911794909417909555935190820155905191015580610c0557600480546001810182556000919091527f8a35acfbc15ff81a39ae7d344fd709f28e8600b4aa8c65c6b64bfe7fe36bd19b0180546001600160a01b0319166001600160a01b038e161790555b604080516001600160a01b038681168252858116602083015262ffffff8516828401529151918e16917fe37480f8ed71c7931548316ef5c479efa7f4c1d0600bf43339373b73c58a7bf49181900360600190a250505050505050505050505b50565b6000546001600160a01b03163314610c915760405162461bcd60e51b815260040161041b9061165f565b60008111610ce15760405162461bcd60e51b815260206004820152601960248201527f496e74657276616c206d75737420626520706f73697469766500000000000000604482015260640161041b565b62015180811115610d285760405162461bcd60e51b8152602060048201526011602482015270496e74657276616c20746f6f206c6f6e6760781b604482015260640161041b565b600180549082905560408051828152602081018490527f906b7c716abe77ce683d8fb36d3428d70d84ae296249efe4691b95ebe3242a88910160405180910390a15050565b600054600160a01b900460ff16610dbc5760405162461bcd60e51b8152602060048201526013602482015272149958dbdc991a5b99c81a5cc81c185d5cd959606a1b604482015260640161041b565b6001546001600160a01b0382166000908152600360205260409020600201548291610de6916116f1565b421015610e355760405162461bcd60e51b815260206004820152601b60248201527f55706461746520696e74657276616c206e6f7420656c61707365640000000000604482015260640161041b565b6001600160a01b03821660009081526002602052604090205460ff16610e6d5760405162461bcd60e51b815260040161041b90611682565b610e76826112c7565b5050565b6000546001600160a01b03163314610ea45760405162461bcd60e51b815260040161041b9061165f565b801515600060149054906101000a900460ff16151503610efe5760405162461bcd60e51b8152602060048201526015602482015274416c726561647920696e207468697320737461746560581b604482015260640161041b565b60008054821515600160a01b0260ff60a01b199091161790556040517fde5c952c6b1d2d5a3d8f912363a2128960eed0e684d59657252227590f9d37bd90610f4b90831515815260200190565b60405180910390a150565b60606000805b600454811015610fca576002600060048381548110610f7d57610f7d61171d565b60009182526020808320909101546001600160a01b0316835282019290925260400190205460ff1615610fb85781610fb481611733565b9250505b80610fc281611733565b915050610f5c565b5060008167ffffffffffffffff811115610fe657610fe6611844565b60405190808252806020026020018201604052801561100f578160200160208202803683370190505b5090506000805b6004548110156110df5760026000600483815481106110375761103761171d565b60009182526020808320909101546001600160a01b0316835282019290925260400190205460ff16156110cd57600481815481106110775761107761171d565b9060005260206000200160009054906101000a90046001600160a01b03168383815181106110a7576110a761171d565b6001600160a01b0390921660209283029190910190910152816110c981611733565b9250505b806110d781611733565b915050611016565b50909392505050565b6000546001600160a01b031633146111125760405162461bcd60e51b815260040161041b9061165f565b6001600160a01b03811660009081526002602052604090205460ff1661114a5760405162461bcd60e51b815260040161041b90611682565b6001600160a01b038116600081815260026020526040808220805460ff19169055517ff82ae9a5785e9b261d7e8bba20ced7516919ec7bdc4b18e7d916316f4991e5329190a250565b60008054600160a01b900460ff1615806111c657506001600160a01b03821660009081526002602052604090205460ff16155b156111d357506000919050565b6001546001600160a01b0383166000908152600360205260409020600201546111fc91906116f1565b42101592915050565b6000546001600160a01b0316331461122f5760405162461bcd60e51b815260040161041b9061165f565b6001600160a01b0381166112775760405162461bcd60e51b815260206004820152600f60248201526e496e76616c6964206164647265737360881b604482015260640161041b565b600080546001600160a01b038381166001600160a01b0319831681178455604051919092169283917f8be0079c531659141344cd1fd0a4f28419497f9722a3daafe3b4186f6b6457e09190a35050565b6000806000836001600160a01b0316633850c7bd6040518163ffffffff1660e01b815260040160e060405180830381865afa15801561130a573d6000803e3d6000fd5b505050506040513d601f19601f8201168201806040525081019061132e9190611763565b96505050505092509250806113765760405162461bcd60e51b815260206004820152600e60248201526d141bdbdb081a5cc81b1bd8dad95960921b604482015260640161041b565b6000846001600160a01b0316631a6865026040518163ffffffff1660e01b8152600401602060405180830381865afa1580156113b6573d6000803e3d6000fd5b505050506040513d601f19601f820116820180604052508101906113da919061185a565b6001600160a01b0380871660009081526003602081905260408220805460018201544260028401559282018054969750919590851694929092169261141e83611733565b9091555050604080516001600160a01b038981168252600289900b60208301526001600160801b03871682840152848116606083015283811660808301524260a08301524360c08301529151918a16917f17440ab048fe6c6cbd98dc862b13c09a99713ac93c0d806c9b2a2a384787935e9181900360e00190a25050505050505050565b6001600160a01b0381168114610c6457600080fd5b6000602082840312156114c957600080fd5b81356105d6816114a2565b6000806000604084860312156114e957600080fd5b83356114f4816114a2565b9250602084013567ffffffffffffffff8082111561151157600080fd5b818601915086601f83011261152557600080fd5b81358181111561153457600080fd5b87602082850101111561154657600080fd5b6020830194508093505050509250925092565b60006020828403121561156b57600080fd5b5035919050565b6000806020838503121561158557600080fd5b823567ffffffffffffffff8082111561159d57600080fd5b818501915085601f8301126115b157600080fd5b8135818111156115c057600080fd5b8660208260051b85010111156115d557600080fd5b60209290920196919550909350505050565b8015158114610c6457600080fd5b60006020828403121561160757600080fd5b81356105d6816115e7565b6020808252825182820181905260009190848201906040850190845b818110156116535783516001600160a01b03168352928401929184019160010161162e565b50909695505050505050565b6020808252600990820152682737ba1037bbb732b960b91b604082015260600190565b60208082526010908201526f141bdbdb081b9bdd08195b98589b195960821b604082015260600190565b60208152816020820152818360408301376000818301604090810191909152601f909201601f19160101919050565b634e487b7160e01b600052601160045260246000fd5b80820180821115611704576117046116db565b92915050565b81810381811115611704576117046116db565b634e487b7160e01b600052603260045260246000fd5b600060018201611745576117456116db565b5060010190565b805161ffff8116811461175e57600080fd5b919050565b600080600080600080600060e0888a03121561177e57600080fd5b8751611789816114a2565b8097505060208801518060020b81146117a157600080fd5b95506117af6040890161174c565b94506117bd6060890161174c565b93506117cb6080890161174c565b925060a088015160ff811681146117e157600080fd5b60c08901519092506117f2816115e7565b8091505092959891949750929550565b60006020828403121561181457600080fd5b81516105d6816114a2565b60006020828403121561183157600080fd5b815162ffffff811681146105d657600080fd5b634e487b7160e01b600052604160045260246000fd5b60006020828403121561186c57600080fd5b81516001600160801b03811681146105d657600080fdfea26469706673582212206c761d55e7fdb3139a5f1e84d4ae634fd1b1108cd8be45a92a6ed0d3e98b297b64736f6c63430008130033",
  "linkReferences": {},
  "deployedLinkReferences": {}
}